:020000040800F2
:1000000000000420ED5C0008CD590008CF5900081D
:10001000D1590008D3590008D55900080000000044
:10002000000000000000000000000000D759000898
:10003000D959000800000000DB590008DD5900080C
:100040003D5D00083D5D00083D5D00083D5D000828
:100050003D5D00083D5D00083D5D00083D5D000818
:100060003D5D00083D5D00083D5D00083D5D000808
:100070003D5D00083D5D00083D5D00083D5D0008F8
:100080003D5D00083D5D00083D5D00083D5D0008E8
:100090003D5D00083D5D00083D5D00083D5D0008D8
:1000A0003D5D00083D5D00083D5D00083D5D0008C8
:1000B0003D5D00083D5D00083D5D00083D5D0008B8
:1000C0003D5D00083D5D00083D5D00083D5D0008A8
:1000D0003D5D00083D5D00083D5D00083D5D000898
:1000E0003D5D00083D5D00083D5D00083D5D000888
:1000F0003D5D00083D5D00083D5D00083D5D000878
:10010000000000003D5D00083D5D00083D5D000809
:1001100000000000000000003D5D00083D5D00089B
:100120003D5D00083D5D00083D5D00083D5D000847
:100130003D5D00083D5D00083D5D00083D5D000837
:100140003D5D00083D5D00083D5D0008E559000883
:100150003D5D00083D5D00083D5D00083D5D000817
:100160003D5D00083D5D000800000000000000004B
:10017000000000000000000000000000000000007F
:100180003D5D00083D5D000800000000000000002B
:100190003D5D00083D5D000800000000000000001B
:1001A000000000000000000000000000000000004F
:1001B0003D5D000800000000000000003D5D0008FB
:0401C0003D5D000899
:1001C40010B5054C237833B9044B13B10448AFF38D
:1001D40000800123237010BD6C0800200000000083
:1001E4008067000808B5034B1BB103490348AFF30C
:1001F400008008BD0000000070080020806700082F
:1002040053B94AB9002908BF00281CBF4FF0FF3179
:100214004FF0FF3000F072B9ADF1080C6DE904CE77
:1002240000F006F8DDF804E0DDE9022304B07047CD
:100234002DE9F047089E04468846002B4BD18A429C
:10024400154667D9B2FA82F24AB1C2F1200701FA1F
:1002540002F320FA07F7954047EA030894404FEA6F
:10026400154E230CB8FBFEF71FFA85FC0EFB17880E
:1002740043EA084307FB0CF1994209D9EB1807F14B
:10028400FF3080F01B81994240F21881023F2B44D9
:100294005B1AA4B2B3FBFEF00EFB103344EA034432
:1002A40000FB0CFCA44509D92C1900F1FF3380F0A4
:1002B4000781A44540F2048102382C4440EA0740F7
:1002C400A4EB0C0400271EB1D4400023C6E900436C
:1002D4003946BDE8F0878B4209D9002E00F0EB8047
:1002E4000027C6E9000138463946BDE8F087B3FA6D
:1002F40083F7002F47D18B4202D3824200F2FA8067
:10030400841A61EB030301209846002EE0D0C6E96D
:100314000048DDE702B9FFDEB2FA82F2002A40F0BB
:100324008F80491B4FEA154E1FFA85F80127B1FB50
:10033400FEFC230C0EFB1C1143EA014308FB0CF1E9
:10034400994207D9EB180CF1FF3002D2994200F21E
:10035400CD808446591AA3B2B1FBFEF00EFB1014F3
:1003640043EA044408FB00F8A04507D92C1900F11E
:10037400FF3302D2A04500F2B6801846A4EB08046D
:1003840040EA0C409FE7C7F1200CBB4022FA0CFE68
:100394004EEA030E01FA07F420FA0CF521FA0CF3E5
:1003A4004FEA1E482543B3FBF8F92C0C08FB19331C
:1003B4001FFA8EFA44EA034309FB0AF49C4202FA48
:1003C40007F200FA07F10BD91EEB030309F1FF3022
:1003D40080F087809C4240F28480A9F10209734432
:1003E4001B1BADB2B3FBF8F008FB103345EA034422
:1003F40000FB0AFAA24508D91EEB040400F1FF33FE
:100404006BD2A24569D90238744440EA0940A0FB82
:100414000289A4EB0A044C45C2464B4654D351D03E
:10042400002E69D0B1EB0A0564EB030404FA0CFC5A
:10043400FD40FC404CEA0505C6E90054002747E7A7
:10044400C2F1200320FA03F7954001FA02F021FAE1
:1004540003F34FEA154E3843010CB3FBFEF71FFAC2
:1004640085F80EFB173341EA034107FB08F38B427F
:1004740004FA02F407D9691807F1FF3C2FD28B4222
:100484002DD9023F2944CB1A81B2B3FBFEF00EFBF7
:10049400103341EA034100FB08F38B4207D9691882
:1004A40000F1FF3C17D28B4215D902382944C91AEE
:1004B40040EA07473BE73746304609E70746E7E6A1
:1004C4001846FBE64145ABD2B8EB020A69EB0E02D3
:1004D40001381346A4E76046E9E7184695E76746FE
:1004E400D1E781467CE702382C4447E7ACF1020CA3
:1004F4002B442FE7384608E73746E9E6704700BF44
:1005040010B504460E4B18784FF47A73B3FBF0F32E
:100514000C4A1068B0FBF3F000F0ACF868B90F2C8B
:1005240001D901200AE0002221464FF0FF3000F0FB
:100534005FF8054B1C60002000E0012010BD00BFE7
:1005440000000020280000200400002008B50B4B08
:100554001A6842F400721A601A6842F480621A60DF
:100564001A6842F480721A60032000F02FF8002009
:10057400FFF7C6FF04F0E8FF002008BD003C02407E
:10058400034A1168034B1B780B441360704700BF88
:10059400CC08002000000020014B1868704700BF01
:1005A400CC08002038B50446FFF7F6FF0546B4F141
:1005B400FF3F02D0044B1B781C44FFF7EDFF401BA8
:1005C400A042FAD338BD00BF00000020074AD36818
:1005D40023F4E0631B041B0C000200F4E0601843E6
:1005E40040F0BF6040F40030D060704700ED00E0A0
:1005F40030B4174BDB68C3F30223C3F10704042CA4
:1006040028BF04241D1D062D18D9033B4FF0FF35C8
:1006140005FA04F421EA0401994005FA03F322EAF5
:100624000303194300280BDB0901C9B200F1604040
:1006340000F5614080F8001330BC70470023E5E703
:1006440000F00F000901C9B2024B1954F4E700BFCE
:1006540000ED00E014ED00E0002807DB00F01F02CD
:10066400400901239340024A42F82030704700BFFA
:1006740000E100E00138B0F1807F0AD2064B5860F7
:10068400064AF02182F823100020986007221A609D
:1006940070470120704700BF10E000E000ED00E06B
:1006A40000230F2B00F2D180F0B583B039E006228D
:1006B40000E00022AA403A430234644D45F8242065
:1006C400634A1468F24302EA04054F6817F4803F52
:1006D40001D046EA04055E4C2560646802EA04051C
:1006E4004F6817F4003F01D046EA0405584C656092
:1006F400A46802EA04054F6817F4801F01D046EA93
:100704000405534CA560E46822404D6815F4001FAD
:1007140001D046EA04024E4CE26001330F2B00F292
:10072400928001229A400C6804EA0206B242F4D193
:100734004C68651E012D03D9112C01D0122C12D145
:1007440085685F000324BC4025EA0405CC68BC40EE
:100754002C438460456825EA02054C68C4F3001202
:100764009A402A434260C4685F000322BA40D243DD
:1007740014408D68BD402543C5604C68022C01D0EF
:10078400122C13D1DD08083550F825E003F00704D6
:100794004FEA840C0F2404FA0CF42EEA040E0C69BC
:1007A40004FA0CF444EA0E0440F82540046822409C
:1007B4004C6804F00304BC40224302604A6812F00F
:1007C400805FAAD000220192224A546C44F48044EF
:1007D4005464526C02F480420192019A9C08A51C54
:1007E4001A4A52F8257003F0030295000F22AA401A
:1007F40027EA0207184A90423FF45BAF02F5806291
:10080400904216D002F58062904214D002F58062C4
:10081400904212D002F58062904210D002F58062BC
:1008240090420ED002F5806290423FF440AF07221E
:1008340040E701223EE702223CE703223AE7042292
:1008440038E7052236E703B0F0BD704700380140B1
:10085400003C0140003802400000024012B9090483
:100864008161704781617047F8B50668346A04F0A5
:100874000F07C4F34343C4F30A14022B2ED16CB301
:1008840007EB8702D3000344596C39B3054622466B
:10089400304603F0F1F8BA003A44D3002B445A6CC2
:1008A40022445A64DA6C2244DA6406EB4713D3F820
:1008B40010150B4A0A408AB1D3F8002522F0804271
:1008C40042F00042C3F80025BB00D919CA002A44EB
:1008D40092F8503083F0010382F85030F8BD00BF25
:1008E4000000F81FF0B585B09DF828509DF82C60E5
:1008F400BDF8307090F8B842012C41D0012480F842
:10090400B8424FEA810C8C444FEACC0404444FF0C3
:10091400000C84F83DC084F83830A4F8407084F8A2
:10092400391084F83F6002F07F0C84F83AC012F06A
:10093400800F1BD101EB810C4FEACC0404444FF02F
:10094400000C84F83BC0044601EB810C4FEACC0058
:10095400204480F83C50029701960095206803F0EB
:1009640093F9002384F8B83205B0F0BD01EB810C93
:100974004FEACC0404444FF0010C84F83BC0E2E796
:100984000220F1E790F8B832012B0BD010B50446E1
:10099400012380F8B832006803F0FFF9002084F8DE
:1009A400B80210BD02207047002845D0F0B58BB0C6
:1009B4000646046890F8B932002B38D0032386F831
:1009C400B932E36B13F4807F01D1002333613068C3
:1009D40002F0F9FF344654F810CB6D460FCC0FC526
:1009E4000FCC0FC594E8030085E80300371D97E892
:1009F4000E00604602F09CFF0121306802F0E9FF1E
:100A0400344654F810CB6D460FCC0FC50FCC0FC530
:100A140094E8030085E8030097E80E00604603F0BD
:100A2400A9F8012386F8B93200200BB0F0BD80F894
:100A3400B83205F029F8C1E701207047F8B59DF8F0
:100A44001870BDF820608D000D44EC00044484F857
:100A54003B2084F83F306FB901EB8105EC0004447E
:100A6400032584F84250032B00F29680DFE803F05C
:100A74000A8D2F5E01EB8105EC000444022584F805
:100A84004250F0E7012F40F08780002A40F0848034
:100A940036B901EB8102D3000344012283F85120CB
:100AA40001EB8102D300034493F851303BB901EBCD
:100AB4008102D3000344002283F842206CE001EB5E
:100AC4008102D3000344022283F8422064E0B2B9D5
:100AD40001EB8102D300034493F851303BB901EB9D
:100AE4008102D3000344002283F8422054E001EB46
:100AF4008102D3000344022283F842204CE001EB3C
:100B04008102D300034493F850303BB901EB8102D6
:100B1400D3000344002283F842203DE001EB81022C
:100B2400D3000344022283F8422035E0B2B901EB3A
:100B34008102D300034493F851303BB901EB8102A5
:100B4400D3000344002283F8422025E001EB810214
:100B5400D3000344022283F842201DE001EB81020A
:100B6400D300034493F850303BB901EB8102D30026
:100B74000344002283F842200EE001EB8102D300FB
:100B84000344022283F8422006E001EB8102D300F1
:100B94000344002283F842208A005418E3000344EB
:100BA400079C5C649E64002483F85C40DC6483F8E6
:100BB400391083F85D401144CB0003F13801027C05
:100BC4000144006803F064F9F8BD30B583B005460C
:100BD4000468D4F840340193D4F840340093009B63
:100BE40023F02E030093019B13F0020F07D0019B07
:100BF40013F0010F28D1009B43F002030093019BE3
:100C040013F0080F13D0009B43F008030093019BDB
:100C140013F0040F34D0AB69022B1CD0EB68012B0A
:100C240029D0284604F085FF284604F075FF019B6F
:100C340013F0200F03D0009B43F020030093009B8C
:100C4400C4F8403403B030BDA36923F00053A3615A
:100C540004F062FFCFE7019B03F4C023B3F5802FB8
:100C640004D00121286802F023FFDAE70221286872
:100C740002F01EFFD5E74EF66022C4F80424D0E744
:100C8400284604F05CFFD4F8403423F02E03C4F863
:100C940040342A68936943F000539361C7E7F8B579
:100CA40006460D46076807EB411707F5A064A368DD
:100CB40013F0040F3ED00423A360E36843F002035F
:100CC400E360A36813F4007F6AD1A36813F0010FF3
:100CD40000F0878033694BB1AA002A44D30033441F
:100CE4009A6C2169C1F31201521ADA64AA002A44E7
:100CF400D3003344012283F85D2000219965A2606A
:100D040093F83F30002B57D0022B55D0032B5DD1E5
:100D1400D7F8003543F00053C7F8003505EB8502DA
:100D2400D3003344012283F85C202946304604F082
:100D3400FFFE4BE0A36813F0200F02D02023A36032
:100D4400BFE7A36813F0080F17D1A36813F4806FEB
:100D5400B7D0E36843F00203E360006803F01DF8D2
:100D64001023A36005EB8502D3003344082283F8E3
:100D74005D204FF48063A360A3E7E36843F00203BC
:100D8400E36001EB8102D3000344052283F85D2074
:100D94001023A3600823A360006802F0FEFF90E71D
:100DA400E36843F00203E3602946306802F0F5FF8C
:100DB4004FF40073A36013E0E36843F00203E360BD
:100DC4002946306802F0E9FF1023A360AB005919EB
:100DD400CA00324492F8503083F0010382F8503054
:100DE400F8BDA36813F0020F62D0E36823F0020396
:100DF400E36005EB8502D300334493F85D30012BA7
:100E040017D0052B29D0062B2FD0082B2DD0032B40
:100E140016D105EB8502D3003344022283F85C200B
:100E2400D7F8003523F0804343F00043C7F800357A
:100E340006E005EB8502D3003344012283F85C20ED
:100E44000223A36005EB8502D300334493F85C20AE
:100E54002946304604F06CFEC2E705EB8502D30058
:100E64003344052283F85C20EAE7AA002A44D3002D
:100E740033449A6D01329A65032A11D9AA002A448F
:100E8400D300334400229A65042283F85C20D7F807
:100E9400003523F0804343F00043C7F80035CFE723
:100EA40005EB8502D3003344022283F85C20EEE78D
:100EB400A36813F0800F19D1A36813F0100F8FD01B
:100EC40005EB8502D300334493F83F30032B25D040
:100ED4000BB1022B07D105EB8502D300334400226A
:100EE4009A6533694BB31023A36079E7E36843F051
:100EF4000203E360AB005919CA003244916D013119
:100F040091652B44DA003244062382F85D30294689
:100F1400306802F042FF8023A36061E705EB85029D
:100F2400D300334400229A65E36843F00203E3608C
:100F34002946306802F031FFD5E705EB8502D3007E
:100F44003344032283F85D20E36843F00203E36043
:100F54002946306802F021FFC5E7F8B5036803EBC2
:100F6400411303F5A064A26812F0040F24D10E46C5
:100F74000546A26812F0200F25D02023A36001EBC0
:100F84008102D3001A46034493F83D30012B19D152
:100F94008B000244002182F83D103344DA000244FD
:100FA400022382F85C30E36843F00203E3603146D5
:100FB400006802F0F2FE05E00423A360E36843F056
:100FC4000203E360F8BDA26812F0400F34D1A268B6
:100FD40012F4007F4AD1A26812F0010F51D1A26825
:100FE40012F0080F62D1A26812F0100F6FD08A00BD
:100FF4000A44D300034400229A65032283F85D2047
:1010040093F83D306BB901EB8102D300034493F8AC
:101014003C3033B901EB8102D3000344012283F84D
:101024003D20E36843F00203E3603146286802F0A0
:10103400B4FE1023A360C5E78B005918CA0002440C
:10104400042182F85D10012182F83D103344DA0056
:10105400024400239365E36843F00203E3603146EE
:10106400006802F09AFE4023A360ABE7E36843F014
:101074000203E360006802F090FE4FF40073A36083
:10108400A0E78F007A18D300034400229A65E3682E
:1010940043F00203E360006802F07FFE0123A360D3
:1010A400B919C800284480F85D308BE70823A36091
:1010B400E36843F00203E360006802F06EFE06EBAF
:1010C4008601C8002844052380F85D307AE7A268C9
:1010D40012F0800F39D1A26812F4806F46D1A26851
:1010E40012F0020F3FF46EAFE26822F00202E260F7
:1010F40001EB8101CA001146024492F85D20012AE5
:1011040048D0032A5AD0042A6CD0052A72D0062A61
:1011140001D0082A59D1B1003144CA002A44916D42
:101124000131916503296BD9282202FB0652002163
:101134009165042182F85C10D3F8002522F08042E6
:1011440042F00042C3F800253FE0E36843F00203A5
:10115400E360006802F021FE06EB8601CB002B441D
:10116400062283F85D208023A3602BE7E36843F025
:101174000203E360006802F010FE1023A3604FF442
:101184008063A36006EB8601CB002B44082283F81E
:101194005D2017E70B460344012283F85C2093F893
:1011A4003F30023BDBB293420FD80B46034493F823
:1011B400512082F0010283F8512006E006EB8602FA
:1011C400D3000344022283F85C200223A36006EBCD
:1011D4008602D3002B4493F85C203146284604F061
:1011E400A7FCEFE606EB8602D3000344022283F851
:1011F4005C20EAE7282303FB060383F85C20E4E78A
:10120400282202FB0652022182F85C1094E7F8B50A
:1012140004460568284602F047FC012800D0F8BDC2
:10122400206802F03DFC0028F9D0206802F038FC68
:1012340010F4001F03D023684FF400125A61206891
:1012440002F02EFC10F4801F03D023684FF48012A8
:101254005A61206802F024FC10F0806F03D02368E8
:101264004FF080625A61206802F01AFC10F0020FFD
:1012740002D0236802225A61206802F011FC10F0A7
:10128400005F25D1206802F00BFC10F0807F31D183
:10129400206802F005FC10F0080F2FD1206802F03E
:1012A400FFFB10F0007F30D1206802F0F9FB10F052
:1012B400100FB4D02268936923F010039361204681
:1012C400FFF7D2FA2268936943F010039361A6E70B
:1012D400D5F8403423F02E03C5F84034204604F0FA
:1012E40021FC0121206802F0E3FB23684FF0005247
:1012F4005A61C7E72046FFF768FCC9E7204604F0B7
:1013040005FC236808225A61C8E7206802F040FD02
:101314000746002604E0F1B22046FFF71EFE013620
:10132400A368B34212D906F00F0327FA03F313F0AC
:10133400010FF4D005EB4613D3F8003513F4004F36
:10134400E9D0F1B22046FFF7AAFCE8E723684FF0A2
:1013540000725A61A8E738B590F8B832012B0ED064
:101364000446012580F8B852006802F026FB29469D
:10137400206802F0DCFB002084F8B80238BD0220AB
:10138400FCE790F8B832012B0BD010B504460123CA
:1013940080F8B832006802F027FE002084F8B80212
:1013A40010BD0220704708B5006802F0A1FB08BD1B
:1013B40001EB8101CB00184490F85C00704701EB0D
:1013C4008101CB001844C06C704708B5006802F076
:1013D40056FC08BD08B5006802F046FC08BD0000D4
:1013E400002800F0C880F8B5044690F83D30002B82
:1013F40075D0242384F83D302268136823F0010358
:1014040013602268136843F400431360226813686E
:1014140023F40043136000F0BBFD6268584B9A420A
:1014240062D8584B98428CBF00230123002B40F014
:10143400A480554BA3FB00239B0C21684A6822F02F
:101444003F021A434A6025682A6A22F03F0266680E
:101454004B498E424ED8013313432B622568E96908
:1014640021F44F4121F0FF016368454A93424BD870
:1014740001385B00B0FBF3F30133C3F30B03042B1C
:1014840038BF04230B43EB6121680B6823F0C003CE
:10149400E269206A024313430B6021688B6823F4DA
:1014A400034323F0FF032269E068024313438B6084
:1014B4002168CB6823F0FF036269A06902431343E8
:1014C400CB602268136843F001031360002020649A
:1014D400202384F83D30206384F83E00F8BD80F872
:1014E4003C3004F04DF884E7284B98428CBF00232D
:1014F40001239BE74FF4967101FB03F32449A1FBFD
:1015040003139B090133A7E7A268BAB9461E03EB8C
:101514004307B6FBF7F60136C6F30B06B6FA86F6B2
:10152400760936BBC2B9013803EB4303B0FBF3F3CE
:101534000133C3F30B0242F40043A3E7461E03EB5B
:10154400830707EB8707B6FBF7F60136C6F30B06EE
:10155400B6FA86F67609E4E7013803EB830303EB76
:101564008303B0FBF3F20132C2F30B0242F44043B3
:1015740088E7012386E7012070470120AEE700BF1A
:10158400A08601007F841E0083DE1B43FF083D000C
:10159400D34D6210002800F0D38070B5044690F853
:1015A40041300BB3022284F841202168CB6923F433
:1015B4007B6323F00F03CB6123681A626369934250
:1015C40078D0E368BBB91025A368202B00D86D0040
:1015D40023685C4A934210D002F5806293420CD097
:1015E400022000F053FE0BE080F84030564B43637A
:1015F40004F040F8D6E72025E6E7012000F046FE97
:101604002369B3F5007F3DD0B0FBF5F000EB80001B
:1016140043006269B3FBF2F305334C4AA2FB032394
:10162400DB0803F001029B1A5B081202991EFD29D4
:1016340042D821690A43216813430B622168CB69AC
:1016440023F47B6323F00F036268A0680243E0681D
:101654000243A0690243134343F40063CB61A368CC
:10166400302B01D0B02B04D12268D36943F48053CA
:10167400D361236A012B25D000206064012384F800
:10168400413070BDE36853B1AD00B0FBF5F000EB41
:10169400800043006269B3FBF2F30533BDE7ED005C
:1016A400B0FBF5F000EB800043006269B3FBF2F39A
:1016B4000533B2E70022B9E7636C43F010036364B7
:1016C4000120DEE7224B636322681E4B9A421FD03F
:1016D4004FF04022D36923F47B6323F00F03D361DB
:1016E4002268184B9A4215D04FF0402302221A6206
:1016F4002268144B9A4210D04FF04021CA6992B22A
:101704006368B3F5007F0AD0C3B94FF4807608E06C
:10171400104ADFE7A3F58063E8E70E49EEE74FF4EC
:101724008076A068E568238B2B439BB203439BB26E
:101734003343134343F40063CB619DE70026F0E792
:101744000120704700380040CF170008CDCCCCCC26
:10175400D919000800340040704708B5426A03688C
:101764001288DA60436A02334362438D013B9BB2C1
:101774004385438D9BB203B108BD0268536823F0CF
:10178400A0035360012380F84130FFF7E5FFF3E73E
:10179400704708B50368DA68C36A1A80C36A0233FB
:1017A400C362438E013B9BB24386438E9BB203B11B
:1017B40008BD0268536823F060035360012380F876
:1017C4004130FFF7E5FFF3E7704710B584B00446F6
:1017D40002689368039390F84130DBB2042B06D07F
:1017E40094F84130DBB2032B2CD004B010BD039B22
:1017F40013F0010F03D0536813F0400F1FD1039B64
:1018040013F0400FECD023685A6812F0200FE7D091
:101814005A6822F060025A60002301932368DA6850
:1018240001929B680193019B012384F84130636C0E
:1018340043F0020363642046FFF7C6FFD0E7FFF7D7
:10184400A8FFDCE7039B13F0020F04D023685B6856
:1018540013F0800F1DD1039B13F0080FC5D023682C
:101864005A6812F0200FC0D05A6822F0A0025A60C1
:101874000023029323689B680293029B012384F84C
:101884004130636C43F0040363642046FFF79CFF1C
:10189400ABE72046FFF761FFDDE7704708B5436A11
:1018A4009A1C426202681B88D360438D013B9BB241
:1018B4004385438D9BB23BB90268536823F0A00370
:1018C4005360438E9BB203B108BD012380F84130BD
:1018D400FFF7E3FFF8E7000008B50268144B9A42EB
:1018E4001BD04FF04023DA68C36A991CC1621A8086
:1018F400438E013B9BB24386438E9BB263B902681D
:101904000B4B9A420CD04FF04022536823F06003F3
:101914005360438D9BB22BB108BDA3F58063E2E70E
:10192400044AF2E7012380F84130FFF7B6FFF3E7FA
:10193400003800400034004008B5436A9A1C4262F3
:101944001A880168124B994217D04FF04023DA608D
:10195400438D013B9BB24385438D9BB263B90268BF
:101964000B4B9A420CD04FF04022536823F0A00353
:101974005360438E9BB22BB108BDA3F58063E6E7A9
:10198400044AF2E7012380F84130FFF786FFF3E7CA
:10199400003800400034004008B50368DA68C36AC0
:1019A400991CC1621A80438E013B9BB24386438ECD
:1019B4009BB23BB90268536823F060035360438DC4
:1019C4009BB203B108BD012380F84130FFF765FFE6
:1019D400F8E7000010B586B0044603689A680592DB
:1019E400704A93426FD04FF04022916804915B6833
:1019F4000393536802936368B3F5007F01D0002B0F
:101A040070D1059B13F0020F03D0039B13F0800FDA
:101A14005CD1049B13F0010F03D0029B13F0400F21
:101A240058D1049B13F0400F24D0029B13F0200FD5
:101A340020D022685B4B9A4250D04FF0402253682A
:101A440023F0600353602268536823F0A0035360BB
:101A5400002300932368DA6800929B680093009B3C
:101A6400012384F84130636C43F00203636420462D
:101A7400FFF7AAFE059B13F0080F22D0039B13F077
:101A8400200F1ED02268536823F0A00353602268FD
:101A9400444B9A4224D04FF04022536823F0600311
:101AA40053600023019323689B680193019B0123E6
:101AB40084F84130636C43F0040363642046FFF709
:101AC40083FE06B010BDA2F580628EE72046FFF7C4
:101AD400E5FE9EE72046FFF7FFFEA2E7324AAEE7A7
:101AE400314ADAE7049B13F0020F03D0029B13F090
:101AF400800F4AD1059B13F0010F03D0039B13F011
:101B0400400F46D1059B13F0400F1CD0039B13F0EC
:101B1400200F18D02268536823F0600353602268B2
:101B2400204B9A4239D04FF04022536823F0A0034F
:101B34005360012384F84130636C43F0020363640F
:101B44002046FFF741FE049B13F0080FB9D0029B17
:101B540013F0200FB5D02268124B9A421FD04FF0D9
:101B64004022536823F0A00353602268536823F093
:101B740060035360012384F84130636C43F0040331
:101B840063642046FFF720FE9BE72046FFF7D4FE60
:101B9400B0E72046FFF700FFB4E7034AC5E7024A6F
:101BA400DFE700BF00380040003400402DE9F04179
:101BB40005460F4616469846069C2B689B683B4292
:101BC40014BF01230023B34212D0B4F1FF3FF4D079
:101BD4002CB1FEF7E1FCA0EB0800A042EDD90423F0
:101BE40085F841306B6C43F001036B64012000E025
:101BF4000020BDE8F08181647047000030B583B0F7
:101C04000446FEF7C9FC002C4ED0054694F841303A
:101C1400002B3ED021680B6823F4F853A268013AE4
:101C240043EA02230B60A36C00932B46002220217D
:101C34002046FFF7BBFF014628BB2068036823F05A
:101C44007F4323F0D0036568E26842EA0562E569F0
:101C54002A43256A2A431343036020684268134BCE
:101C640013402569626942EA0542A5692A43134380
:101C740043602268136843F0010313600023636424
:101C8400012384F84130002384F84030084603B02F
:101C940030BD84F84030204603F05AFD41F28831CB
:101CA4002046FFF7A8FFB5E70121EFE7FEF8E0FFC4
:101CB40070B588B00C46164608B300230293204D35
:101CC4002A6B42F004022A632A6B02F00402029295
:101CD400029A4FF4007203920222049203220692A3
:101CE4000593079303A91748FEF7DAFCAB6823F0C2
:101CF400784344EAC6041C43AC6008B070BD0023BA
:101D040001930F4D2A6B42F001022A632A6B02F001
:101D140001020192019A4FF480720392022204920A
:101D2400032206920593079303A90748FEF7B8FC1C
:101D3400AB6823F0EC6334431C43AC60DDE700BFC5
:101D4400003802400008024000000240324B9B6809
:101D540003F00C03042B5CD0082B01D02F487047F0
:101D64002DE9F04B2C4B5A6802F03F025B6813F4E8
:101D7400800F2BD0284B5B68C3F388131E460027C3
:101D84005C010025E41A65EB0705A90141EA9461A9
:101D9400A001001B61EB0501CB0043EA5073C400B2
:101DA400A01943EB07014B0243EAD05344022046F7
:101DB40019460023FEF724FA174B5B68C3F301436B
:101DC40001335B00B0FBF3F0BDE8F08B124B5B68B2
:101DD400C3F388131E4600275C010025E41A65EB53
:101DE4000705A90141EA9461A001001B61EB05010B
:101DF400CB0043EA5073C400A01943EB07018B02E4
:101E040043EA90538402204619460023FEF7F8F96A
:101E1400D2E70348704700BF003802400024F400B2
:101E240000127A00002800F09E8070B50446504BE2
:101E34001B6803F00F038B4209D2CBB24C4A1370D8
:101E4400136803F00F038B4201D0012070BD236897
:101E540013F0020F17D013F0040F04D0454A93680F
:101E640043F4E0539360236813F0080F04D0414A0D
:101E7400936843F4604393603E4A936823F0F0030D
:101E8400A068034393600D46236813F0010F32D01A
:101E94006368012B21D09A1E012A25D9354A12687C
:101EA40012F0020F61D033498A6822F0030213430F
:101EB4008B60FEF771FB06462E4B9B6803F00C0308
:101EC4006268B3EB820F16D0FEF766FB801B41F20B
:101ED40088339842F0D90320B8E7264A126812F4EE
:101EE400003FE0D10120B1E7224A126812F0007FDE
:101EF400D9D10120AAE71E4B1B6803F00F03AB42A4
:101F040009D9EAB21A4B1A701B6803F00F03AB42EB
:101F140001D001209AE7236813F0040F06D0154A74
:101F2400936823F4E053E1680B439360236813F050
:101F3400080F07D00F4A936823F46043216943EAEA
:101F4400C1039360FFF702FF0A4B9B68C3F30313BB
:101F5400094AD35CD840094B1860094B1868FEF74E
:101F6400CFFA002072E70120704701206EE700BF1E
:101F7400003C0240003802409C6700082800002012
:101F840004000020014B1868704700BF280000209F
:101F940008B5FFF7F7FF044B9B68C3F38223034A9A
:101FA400D35CD84008BD00BF00380240AC670008CD
:101FB40008B5FFF7E7FF044B9B68C3F34233034ABA
:101FC400D35CD84008BD00BF00380240AC670008AD
:101FD40070B582B00446036813F0010F0DD0A54A12
:101FE400D2F88C3023F0C06341690B43C2F88C30C3
:101FF4004369002B6FD0002500E00025236813F00F
:10200400020F0BD09B4AD2F88C3023F0C053A16945
:102014000B43C2F88C30A36903B90125236813F07C
:10202400080F5AD1236813F0040F03D094F8382012
:10203400914B1A60236813F0100F08D08D4AD2F820
:10204400943023F44003616A0B43C2F8943023684C
:1020540013F0200F0DD0874AD2F8943023F0006398
:10206400A16A0B43C2F89430A36AB3F1006F00F085
:102074009B80236813F0400F08D07E4AD2F8943036
:1020840023F08053216A0B43C2F89430002D40F0B2
:102094008D802368802B00F08980236813F4807F6F
:1020A40008D0744AD2F88C3023F00043E16A0B4321
:1020B400C2F88C30236813F4007F00F0D8806D4A96
:1020C400D2F88C3023F40043216B0B43C2F88C30DC
:1020D400002002B070BD012590E700230193654BF9
:1020E4001A6C42F080521A641B6C03F08053019303
:1020F400019B624A136843F480731360FEF74CFA41
:1021040006465E4B1B6813F4807F06D1FEF744FA43
:10211400801B0228F5D90320DBE7564B1B6F13F411
:10212400407312D0E26902F440729A420DD0514BCE
:102134001A6F22F44072524901200860002008609E
:102144001A671B6F13F0010F12D1E36903F4407295
:10215400B2F5407F1DD0474A936823F4F813936087
:1021640044490B6FE269C2F30B0213430B6759E74F
:10217400FEF712FA06463F4B1B6F13F0020FE4D131
:10218400FEF70AFA801B41F288339842F3D9032000
:102194009FE738498A6822F4F81223F0704323F445
:1021A400407313438B60DBE7012562E7354B002264
:1021B4001A60FEF7F1F905462E4B1B6813F0006F09
:1021C40006D0FEF7E9F9401B0228F5D9032080E781
:1021D400626B2D4B1A60236813F0010F01D0626902
:1021E400A2B113F0020F01D0A2697AB113F0200F4B
:1021F40003D0A26AB2F1006F08D013F0400F12D0DE
:10220400236A83B9A36AB3F1006F0CD16368A2682F
:1022140043EA8213E26843EA0263226943EA0273EF
:10222400144AC2F88430236813F0800F0CD063681A
:10223400A26843EA8213E26843EA0263226943EA3A
:1022440002730C4AC2F884300E4B01221A60FEF766
:10225400A3F90546074B1B6813F0006F7FF41DAF0D
:10226400FEF79AF9401B0228F4D9032031E7002035
:102274002FE700BF00380240E011474200700040E1
:10228400400E474268004742D8104742012803D015
:10229400022871D000207047724BD3F88C3003F0C1
:1022A400C063B3F1007F2ED00ED9B3F1806F43D059
:1022B400B3F1C06F40F0CD806A4B5B6813F4800FBC
:1022C40000F0C98068487047002B40F0C280654B1D
:1022D400D3F8843013F4800F17D0624BD3F88430D2
:1022E40003F03F036148B0FBF3F05E4AD2F8843058
:1022F400C3F3881300FB03F0D2F88430C3F30273F2
:10230400B0FBF3F0704759487047564B5B6813F4C1
:10231400800F08D0534BD3F8843003F03F03524866
:10232400B0FBF3F0E1E74F4BD3F8843003F03F0305
:102334004F48B0FBF3F0D8E74A4B5B6813F4800FC7
:1023440012D0484B5B6803F03F034748B0FBF3F0FF
:10235400444A5368C3F3881300FB03F05368C3F380
:102364000273B0FBF3F070473E4B5B6803F03F032E
:102374003F48B0FBF3F0EBE73A4BD3F88C3003F073
:10238400C053B3F1006F2BD00CD9B3F1805F40D0B0
:10239400B3F1C05F61D1334B5B6813F4800F5ED03F
:1023A40031487047002B58D12E4BD3F8843013F4A6
:1023B400800F17D02B4BD3F8843003F03F032B4806
:1023C400B0FBF3F0274AD2F88430C3F3881300FB40
:1023D40003F0D2F88430C3F30273B0FBF3F0704718
:1023E400224870471F4B5B6813F4800F08D01D4BC5
:1023F400D3F8843003F03F031B48B0FBF3F0E1E76C
:10240400184BD3F8843003F03F031948B0FBF3F0C2
:10241400D8E7144B5B6813F4800F12D0114B5B6840
:1024240003F03F031048B0FBF3F00E4A5368C3F3C4
:10243400881300FB03F05368C3F30273B0FBF3F09B
:102444007047084B5B6803F03F030948B0FBF3F0A7
:10245400EBE70020704706487047002070470448A7
:10246400704700BF0038024000127A000080BB00B1
:102474000024F40070B582B00446036813F0010F21
:102484003BD0A74B9B6803F00C03042B2CD0A44B2C
:102494009B6803F00C03082B21D06368B3F5803FDD
:1024A4004FD0B3F5A02F52D09D4B1A6822F480323E
:1024B4001A601A6822F480221A606368002B50D0D4
:1024C400FEF76AF80546964B1B6813F4003F14D1D7
:1024D400FEF762F8401B6428F5D903208AE1904B8B
:1024E4005B6813F4800FD8D08D4B1B6813F4003F46
:1024F40003D06368002B00F07A81236813F0020F85
:1025040055D0874B9B6813F00C0F3ED0844B9B68CF
:1025140003F00C03082B33D0E368002B68D0814B05
:1025240001221A60FEF738F805467D4B1B6813F04C
:10253400020F54D1FEF730F8401B0228F5D90320CE
:1025440058E1774A136843F480331360B5E7744B5A
:102554001A6842F480221A601A6842F480321A60BF
:10256400ABE7FEF719F805466D4B1B6813F4003F03
:10257400C3D0FEF711F8401B6428F5D9032039E1D4
:10258400674B5B6813F4800FC6D1654B1B6813F06F
:10259400020F04D0E368012B01D001202AE1604A34
:1025A400136823F0F803216943EAC1031360236825
:1025B40013F0080F40D0636963B35B4B01221A60C8
:1025C400FDF7EAFF0546564B5B6F13F0020F33D15C
:1025D400FDF7E2FF401B0228F5D903200AE1504A27
:1025E400136823F0F803216943EAC1031360DEE7AB
:1025F4004C4B00221A60FDF7CFFF0546484B1B6881
:1026040013F0020FD3D0FDF7C7FF401B0228F5D902
:102614000320EFE0444B00221A60FDF7BDFF05469E
:102624003F4B5B6F13F0020F06D0FDF7B5FF401B65
:102634000228F5D90320DDE0236813F0040F78D0D5
:10264400374B1B6C13F0805F33D100230193344B61
:102654001A6C42F080521A641B6C03F0805301938D
:10266400019B0125314B1B6813F4807F23D0A368A1
:10267400012B34D0052B38D0294B1A6F22F00102DC
:102684001A671A6F22F004021A67A368002B36D067
:10269400FDF782FF0646224B1B6F13F0020F47D152
:1026A400FDF77AFF801B41F288339842F3D9032067
:1026B400A0E00025D6E71D4A136843F48073136035
:1026C400FDF76AFF0646194B1B6813F4807FCED1D1
:1026D400FDF762FF801B0228F5D903208AE0104A27
:1026E400136F43F001031367CFE70D4B1A6F42F0EA
:1026F40004021A671A6F42F001021A67C5E7FDF770
:102704004BFF0646064B1B6F13F0020F10D0FDF76C
:1027140043FF801B41F288339842F3D9032069E0D8
:102724000038024000004742800E474200700040DB
:10273400E5B9A369002B5CD0304A926802F00C0220
:10274400082A59D0022B17D02D4B00221A60FDF70E
:1027540023FF0446294B1B6813F0007F45D0FDF787
:102764001BFF001B0228F5D9032043E0234A136C06
:1027740023F080531364DCE7214B00221A60FDF739
:102784000BFF05461D4B1B6813F0007F06D0FDF7B9
:1027940003FF401B0228F5D903202BE0E369226ADA
:1027A4001343626A43EA8213A26A5208013A43EA73
:1027B4000243E26A43EA0263226B43EA02730F4A6A
:1027C40053600F4B01221A60FDF7E6FE04460B4BE3
:1027D4001B6813F0007F06D1FDF7DEFE001B022804
:1027E400F5D9032006E0002004E0002002E00120E7
:1027F40000E0002002B070BD0120FBE70038024079
:102804006000474270B582B004460023019300681B
:1028140000F0A2FF064610B1304602B070BD206839
:1028240000F0ADFF38B90123A364A36C012B0BD0D6
:102834003546304614E00023A364206800F08CFF82
:102844000028F2D00646E7E70021206800F0AEFF3A
:102854000028EDD04FF08056DEE7019B0133019351
:10286400019A4FF6FE739A4213D895B90021206855
:1028740000F09CFFD8B91249206800F0AFFF05466C
:10288400B8B90021206800F023FEC30FE5D01D462F
:10289400E3E7019A4FF6FE739A420DD810F0804F89
:1028A40002D100236364B7E701236364B4E70646F7
:1028B400B2E74FF08056AFE74FF08076ACE700BF49
:1028C400000010C12DE9F04188B004460F46FDF721
:1028D40063FE06460023009301930821206800F05C
:1028E4000BFF054618B1284608B0BDE8F081216DFC
:1028F4000904206800F05AFF05460028F3D14FF080
:10290400FF33029308230393302304930223059394
:10291400002306930123079302A9206800F0DAFE3E
:10292400206800F08CFF05460028DCD1804605E0D5
:10293400FDF732FE801BB0F1FF3F43D02068426BAD
:1029440040F22A431A420AD1436B13F4001FEFD01A
:1029540000F09AFD4DF8280008F10108E8E7436B00
:1029640013F0080F25D1436B13F0020F24D1436BEE
:1029740013F0200F23D140F23A538363019A1302D8
:1029840003F47F0343EA0263110A01F47F410B431A
:1029940043EA12633B60009A130203F47F0343EAA1
:1029A4000263110A01F47F410B4343EA12637B6023
:1029B40099E70825856396E70225856393E7202533
:1029C400856390E74FF000458DE710B582B004466B
:1029D400002100910191006800F07AFD10F0007F61
:1029E40016D169462046FFF76DFF034690B9019B57
:1029F40013F4802F11D0216D0904206800F0D6FE55
:102A0400034638B90221206800F001FF034601E0C3
:102A14004FF40063184602B010BD4FF08063F9E72D
:102A240010B582B00446002100910191006800F0C5
:102A34004FFD10F0007F16D169462046FFF742FF94
:102A4400034690B9019B13F4803F11D0216D090412
:102A5400206800F0ABFE034638B90021206800F07E
:102A6400D6FE034601E04FF40063184602B010BDE1
:102A74004FF08063F9E7000010B4436E9B0F0B70B6
:102A8400436EC3F383634B7090F8673003F0030322
:102A94008B7090F86630CB7090F865300B7190F8BD
:102AA40064304B71836E1B0DCB80B0F86A3003F039
:102AB4000F030B72836EC3F3C0334B72836EC3F385
:102AC40080338B72836EC3F34033CB72836EC3F354
:102AD40000330B7300234B73436C002B40F088804E
:102AE400826E40F6FC7303EA8203C26E43EA927379
:102AF4000B61C36EC3F3C2630B7590F86F3003F0C0
:102B040007034B75C36EC3F342538B75C36EC3F394
:102B14008243CB75C36EC3F3C2330B760B690133A7
:102B240043650A7E02F00702023203FA02F24265AA
:102B34000B7A03F00F040123A34083655B0A03FBB4
:102B440002F3C3654FF400730366C36EC3F38033AB
:102B54004B76C36EC3F3C6138B76C36E03F07F0349
:102B6400CB76036FDB0F0B77036FC3F341734B77A4
:102B7400036FC3F382638B77036FC3F38353CB7702
:102B8400036FC3F3405381F82030002381F82130D0
:102B9400B0F8722002F0010281F82220026FC2F321
:102BA400C03281F82320026FC2F3803281F82420DE
:102BB400026FC2F3403281F82520026FC2F3003263
:102BC40081F82620026FC2F3812281F82720026F48
:102BD400C2F3012281F82820026FC2F3460281F871
:102BE4002920012281F82A2018465DF8044B7047F9
:102BF400012B0BD003680E4A9A63836B43F0805316
:102C04008363012380F834301846EEE7836E1B0497
:102C140003F47C13B0F86E2013430B610B6901338A
:102C24009B024365C3654FF40073836503668CE7B9
:102C3400FF05400070B590B004460123ADF8123092
:102C4400006800F02CFC00286CD0636C032B45D189
:102C5400636C032B5DD1636C032B1DD0BDF8121084
:102C640021650904206800F017FE054600285BD1A1
:102C74000021206800F02CFC60660421206800F02C
:102C840027FCA0660821206800F022FCE0660C21E5
:102C9400206800F01DFC20670421206800F018FC67
:102CA400000DE06405A92046FFF7E6FE00283ED1AA
:102CB400226D12040023206800F036FD054698BBFF
:102CC400234653F8106B93E807008DE8070004349B
:102CD40094E80E00304600F0BBFB25E0206800F0CD
:102CE400C6FD054600BB0021206800F0F1FB6067CB
:102CF4000421206800F0ECFBA0670821206800F0A4
:102D0400E7FBE0670C21206800F0E2FBC4F88000D8
:102D14009EE70DF11201206800F0D3FD054600285E
:102D240099D001E04FF08065284610B070BD4FF097
:102D34008055F9E770B58AB00546002304930593DE
:102D4400069307930893762309930AAB13E90700C4
:102D54008DE8070004AB0ECB286800F079FB18B1AE
:102D6400012420460AB070BD0446104E002333608F
:102D7400286800F08CFB012333602846FFF742FDEE
:102D8400034630B1012485F83440A86B1843A86386
:102D9400E7E72846FFF74EFF03460028E1D0012469
:102DA40085F83440A86B1843A863DAE7A08025426D
:102DB400C0B110B5044690F834307BB1032384F8D5
:102DC40034302046FFF7B6FF034670B90022A263F1
:102DD4002263012284F83420184610BD037702F0E0
:102DE4002DFDEBE70123184670470123F4E70000AB
:102DF40030B58BB004460D46032380F83430436C61
:102E0400032B1CD0B1F5805F08D0B1F5006F0AD058
:102E140079B1836B43F00063836314E0836B43F005
:102E2400805383630FE0FFF7D0FDA36B1843A063C7
:102E340009E0FFF7F5FDA36B1843A06303E0836B80
:102E440043F080538363A36B3BB12368104A9A63B6
:102E5400012084F834000BB030BD63680493A36888
:102E64000593E3680693079563690893A369099337
:102E74000AAB13E907008DE8070004AB0ECB20680A
:102E840000F0E6FA012384F834300020E3E700BFC1
:102E9400FF05400000283BD010B5044600238362A0
:102EA40090F85130002B2ED0022384F85130226840
:102EB400136823F0400313606368A2681343E26855
:102EC40013432269134362691343A26902F4007233
:102ED4001343E2691343226A1343A16A22680B4332
:102EE4001360638B03F00403616A22680B4353602D
:102EF4002268D36923F40063D36100206065012351
:102F040084F8513010BD80F8503002F0E7FCCBE774
:102F14000120704728B370B5044615460E4690F854
:102F24004930CBB104F10801206800F059F9A268D6
:102F34003146206800F094F9236BA2682946606842
:102F440000F0BAF92268A16852F8213043F0010375
:102F540042F82130002070BD80F8483002F030FD86
:102F6400E0E70120704700002DE9F04B04460268B9
:102F7400136923F44053C1680B43136183680269E6
:102F8400134342691343C2691A430168CB6823F4AB
:102F9400164323F00C031343CB600268536923F4F4
:102FA400407381690B435361C369B3F5004F3BD050
:102FB4000368714A934200F0AB8002F58062934249
:102FC40000F0A680FEF7E4FF4FF00009061849EB75
:102FD400090716EB000B47EB090C4FEACC0343EA55
:102FE4005B734FEACB0293469C4663689A009B0F3F
:102FF40010EB0B0049EB0C01FDF702F95F4DA5FB4B
:1030040000325109642202FB110213013233A5FB81
:1030140003235B0903F0F00202EB011203F00F0338
:10302400216813448B60A4E00368534A934239D067
:1030340002F58062934235D0FEF7AAFF83464FF033
:10304400000C06184CEB0C0716EB000847EB0C09B8
:103054004FEAC90343EA58734FEAC80290469946B7
:1030640062680021921841EB01031BEB08004CEB52
:103074000901FDF7C5F8414DA5FB00325109642251
:1030840002FB1102D3003233A5FB03235B095A0070
:1030940002F4F87202EB011203F0070321681344EF
:1030A4008B6066E0FEF784FF80464FF00009061847
:1030B40049EB090716EB000B47EB090C4FEACC036D
:1030C40043EA5B734FEACB0293469C466268002155
:1030D400921841EB010318EB0B0049EB0C01FDF7CF
:1030E4008FF8264DA5FB00325109642202FB110220
:1030F400D3003233A5FB03235B095A0002F4F872B0
:1031040002EB011203F00703216813448B6030E0E3
:10311400FEF74EFF4FF00009061849EB090716EBBE
:10312400000B47EB090C4FEACC0343EA5B734FEA0D
:10313400CB0293469C4663689A009B0F10EB0B00EE
:1031440049EB0C01FDF75CF80C4DA5FB003251096D
:10315400642202FB110213013233A5FB03235B0932
:1031640003F0F00202EB011203F00F032168134491
:103174008B60BDE8F08B00BF001001401F85EB5150
:1031840058B310B5044690F839300BB3242384F8AF
:1031940039302268D36823F40053D3602046FFF704
:1031A400E3FE2268136923F4904313612268536990
:1031B40023F02A0353612268D36843F40053D36095
:1031C4000020E063202384F8393084F83A3010BDBD
:1031D40080F8383002F0BAFBD8E7012070470000CD
:1031E40070B40C6850F824301C4E1E404A688D6838
:1031F40042EA0503CA6813430A6913434A6913433D
:10320400CA6913430A6A13434A6A13438A6A134313
:10321400CA6A13430A6B13434A6B1343CA6B1343BF
:103224008A6B13433343082D0ED040F824304B6B84
:10323400B3F5801F0BD00B681BB103688A6B134373
:103244000360002070BC704743F04003EDE70A6858
:10325400002AF0D0026813430360ECE78004C0FF47
:1032640030B4013250F8224004F040440B684D68F9
:1032740043EA05138D6843EA0523CD6843EA054311
:103284000D69013D43EA05534D69023D43EA056377
:103294008D692B43234340F82230036813F4801FC5
:1032A40007D0436823F470030A69013A43EA0253DE
:1032B4004360002030BC7047B3F5804F05D06FF0F9
:1032C400704340F822300020704730B450F8223068
:1032D400094C1C400B684D6843EA05138D6843EAAA
:1032E4000523CD6843EA054389690B43234340F82A
:1032F4002230002030BC70470000F0CF0B4B1B681D
:103304000B4AA2FB03235A0A41F2883303FB02F35C
:103314005A1E43B1416B134611F0800FF8D0C523F8
:103324008363002070474FF000407047280000205E
:10333400D34D6210154B1B68154AA2FB03235A0A8E
:1033440041F2883303FB02F35A1EDBB1416B13468F
:1033540011F0450FF8D011F4006FF5D1436B13F061
:10336400040F07D1436B13F0010F07D1C523836307
:103374000020704704238363184670470123836346
:10338400184670474FF00040704700BF28000020E7
:10339400D34D6210114B1B68114AA2FB03235A0A36
:1033A40041F2883303FB02F35A1E9BB1416B13466F
:1033B40011F0450FF8D011F4006FF5D1436B13F001
:1033C400040F03D1C5238363002070470423836360
:1033D400184670474FF00040704700BF2800002097
:1033E400D34D6210184B1B68184AA2FB03235A0AD8
:1033F40041F2883303FB02F35A1EFBB1416B1346BF
:1034040011F0450FF8D011F4006FF5D1436B13F0B0
:10341400040F0BD1436B13F0010F0BD1436B13F06B
:10342400400F0ED04023836300207047042383633E
:103434001846704701238363184670474FF00040D5
:1034440070470020704700BF28000020D34D621051
:1034540084B010B402AC84E80E000B46039A134304
:10346400049A1343059A1343069A1343079A134382
:10347400426822F4FD4222F07F021343436000209D
:103484005DF8044B04B07047D0F88000704708B56D
:10349400032303600220FDF785F8002008BD0068BF
:1034A40000F0030070470B6883604B688A6813431D
:1034B400CA6813430A691343C26822F47F6222F084
:1034C4000F021343C360002070470069C0B2704705
:1034D400143040587047000038B5524B1B68524CAA
:1034E400A4FB03435B0A02FB03F2531E002A60D0D1
:1034F400446B1A4614F0450FF7D014F4006FF4D15E
:10350400436B13F0040F07D1436B13F0010F07D083
:103514000123836318464EE00423836318464AE07C
:103524000D460446C5238363FFF7CFFFA84201D0AD
:10353400012040E000212046FFF7CAFF3B4B034037
:10354400D3B300283ADB10F0804F3AD110F0005F7B
:1035540039D110F0805F38D110F0006F38D110F0FD
:10356400806F38D110F0807F38D110F4000F38D13B
:1035740010F4800F38D110F4001F38D110F4801FDC
:1035840038D110F4802F38D110F4003F38D110F422
:10359400803F38D110F4004F38D110F4804F38D127
:1035A40010F4005F38D110F0080F38D04FF4000049
:1035B40001E04FF0004038BD0020FCE74FF0007000
:1035C400F9E74020F7E78020F5E74FF48070F2E751
:1035D4004FF40070EFE74FF48060ECE74FF40060C5
:1035E400E9E74FF48050E6E74FF40050E3E74FF487
:1035F4008040E0E74FF40040DDE74FF40030DAE7C5
:103604004FF48020D7E74FF40020D4E74FF4801024
:10361400D1E74FF40010CEE74FF48000CBE74FF42E
:103624008030C8E728000020D34D621008E0FFFD79
:1036340070B5264B1B68264CA4FB03435C0A41F27D
:10364400883303FB04F35C1EB3B3456B234615F0C8
:10365400450FF8D015F4006FF5D1436B13F0040F48
:1036640007D1436B13F0010F07D00123836318467E
:1036740024E004238363184620E016460D460446DE
:10368400FFF723FFA84201D0012017E0C523A3635D
:1036940000212046FFF71CFF10F4604F08D010F4FF
:1036A400804F0CD110F4004F0CD04FF4805005E043
:1036B400000C3080002001E04FF0004070BD4FF45A
:1036C4000050FBE74FF48030F8E700BF28000020EB
:1036D400D34D62100B6843624B6883628B68CA687F
:1036E40013430A6913434A691343C26A22F0F70277
:1036F4001343C3620020704730B587B0054601917B
:103704001024029440230393002304934FF4806312
:10371400059301A9FFF7C7FE41F2883221462846E6
:10372400FFF7DAFE07B030BD30B587B00546019229
:103734000724029440230393002304934FF48063EB
:10374400059301A9FFF7AFFE41F2883221462846CE
:10375400FFF7C2FE07B030BD10B586B004460023A3
:1037640001930293039304934FF48063059301A997
:10377400FFF799FE2046FFF7C1FD06B010BD10B556
:1037840086B004464FF4D573019308230293402373
:103794000393002304934FF48063059301A9FFF777
:1037A40082FE2046FFF71EFE06B010BD30B587B07E
:1037B4000546019137240294402303930023049384
:1037C4004FF48063059301A9FFF76DFE41F288323F
:1037D40021462846FFF780FE07B030BD10B586B0FD
:1037E400044641F0004141F48011019129230293E0
:1037F40040230393002304934FF48063059301A9AA
:10380400FFF751FE2046FFF7C5FD06B010BD30B5E9
:1038140087B00546019106240294402303930023B4
:1038240004934FF48063059301A9FFF73CFE41F232
:10383400883221462846FFF74FFE07B030BD30B529
:1038440087B0054600230193332402944022039257
:1038540004934FF48063059301A9FFF724FE41F21A
:10386400883221462846FFF737FE07B030BD10B531
:1038740086B004460023019302220292C0220392DE
:1038840004934FF48063059301A9FFF70CFE2046CF
:10389400FFF750FD06B010BD10B586B00446019187
:1038A40009230293C0230393002304934FF48063FA
:1038B400059301A9FFF7F7FD2046FFF73BFD06B08E
:1038C40010BD70B586B005460E460023019303244F
:1038D40002944022039204934FF48063059301A958
:1038E400FFF7E1FD324621462846FFF7A1FE06B068
:1038F40070BD0000002301330C4A934211D80269C1
:10390400002AF8DA036943F0010303610023013359
:10391400064A934207D8026912F0010FF7D100203A
:103924007047032070470320704700BF400D030019
:1039340084B010B5044603A880E80E00089B012B50
:103944001FD1A36B23F48033A363E36823F48403BC
:1039540023F04003E360E36823F44013E3600F9B28
:10396400012B09D02046FFF7C5FF069B012B1BD076
:10397400BDE8104004B07047E36843F48013E3608B
:10398400F0E7E36843F04003E3602046FFF7B2FF4B
:103994000C9B23B9A36B43F48033A363E5E7A36BC8
:1039A40023F48033A363E0E7A36843F00603A36032
:1039B400A36843F02003A360DAE7836843F00103BC
:1039C400836000207047836823F001038360002034
:1039D400704708B5C36823F0C043C360012909D008
:1039E40069B9C36843F08043C3603220FCF7DAFD51
:1039F400002008BDC36843F00053C360F5E701200D
:103A0400F7E70000890141F020010161002301333F
:103A1400054A934205D8026912F0200FF7D100201D
:103A240070470320704700BF400D0300102303615B
:103A340000230133054A934205D8026912F0100F9E
:103A4400F7D1002070470320704700BF400D0300EA
:103A540070B49DF80C4064B903339D0807E000EB93
:103A6400023303F5805351F8046B1E600134AC42F9
:103A7400F5D3002070BC70470332920800239342B0
:103A84000CD210B400F58054246841F8044B01337F
:103A94009342F7D308465DF8044B704708467047D5
:103AA4004269806910407047406900F00100704726
:103AB40010B400F58064D0F8003423F00303C0F898
:103AC4000034D0F8003401F003021343C0F800348A
:103AD400012905D0022907D000205DF8044B704766
:103AE4004BF680336360F7E741F270736360F3E78A
:103AF40030B583B0044600250195D0F840340193D5
:103B0400019B23F02E030193019B43F48073C0F8BF
:103B140040346420FCF746FD019B23F48073C4F811
:103B240040340A20FCF73EFD284603B030BD82B085
:103B340000230193D0F840340193019B23F02E031A
:103B44000193019B13F4805F01D101290CD0019BE7
:103B540013F4805F05D021B9019B23F48053C0F88E
:103B64004034002002B07047019B43F48053C0F8F6
:103B74004034ECE784B038B5044605A880E80E006C
:103B840025460023C4F8003EA36B23F40013A3636B
:103B9400A36B23F40033A363E36B13F4807F10D08F
:103BA400079B032B06D0D4F8003423F00403C4F895
:103BB40000340CE0D4F8003443F00403C4F80034B7
:103BC40005E0D4F8003423F00403C4F800341021D1
:103BD4002046FFF717FF2046FFF728FF002209E0E1
:103BE40005EB42134FF0FF31C3F808150021C3F869
:103BF4000C150132069B9342F2D801212046FFF7AF
:103C040096FFC820FCF7CEFC0023A3614FF0FF33DE
:103C14006361E36B13F4807F17D04FF40073636226
:103C240003F18073A3620D4BC4F80031089B1BB9E8
:103C3400A36943F01003A361A269094B1343A36171
:103C44000020BDE8384004B070478023636203F568
:103C5400C003A362034BC4F80031E7E70003E000AC
:103C6400080020A3E000400082B000230193D0F8B4
:103C7400403401930198C0F3414002B0704700F50D
:103C84008060806880B27047F0B506469DF81840A1
:103C940000EB411505F5A0604FF0FF378760032C5A
:103CA40065D8DFE804F00256021840F29D47C76069
:103CB40012F0800F09D1F76B17F4807F59D0C768D1
:103CC40047F06007C76000200CE0C76847F48077BE
:103CD400C760002006E040F29D67C76012F0800FC5
:103CE40031D1002006F5806ED6F8187401F00F016A
:103CF4004FF0010C0CFA01F13943C6F81814B169FC
:103D040041F00071B16112F0800F34D100269DF8AA
:103D14001410022932D000219B0503F0FE53D20275
:103D240002F4F0421343A20402F440221343BDF808
:103D34001C20C2F30A02134333430B43C5F8003576
:103D4400032C1ED0F0BDC76847F48077C7600020FD
:103D5400C8E740F22527C76012F0800F01D1002088
:103D6400C0E7C76847F4C077C7600020BAE70120FE
:103D7400B8E70020B6E74FF40046C8E74FF4003137
:103D8400CAE7D5F8003543F00053C5F80035D9E744
:103D940000F58060406980B2704710B400EB4111B7
:103DA40001F5A064D1F80035C3F381433BB3022B82
:103DB40025D0D1F8003543F08043C1F80035D0F860
:103DC400103413F47F0F49D1D1F8003523F00043A8
:103DD400C1F80035D1F8003543F00043C1F800358F
:103DE400D1F8003523F40043C1F800350023013332
:103DF400B3F57A7F27D82268002AF8DB23E0D1F8CC
:103E0400003543F08043C1F80035C36A13F47F0FD3
:103E14001DD1D1F8003523F00043C1F80035D1F8A5
:103E2400003543F00043C1F80035D1F8003523F4E0
:103E34000043C1F8003500230133B3F57A7F02D87B
:103E44002268002AF8DB00205DF8044B7047D1F8A3
:103E5400003543F00043C1F80035F4E7D1F80035EC
:103E640043F00043C1F80035EDE7000000EB4111D9
:103E7400064AC1F81025D1F8003523F0804343F0F9
:103E84000043C1F800350020704700BF00000880DF
:103E940070B582B04C78C36B13F4807F07D00B7974
:103EA4002BB912B94B79012B11D0012A13D00B690C
:103EB400E3B10D892B44013BB3FBF5F39BB2B3F59E
:103EC400807F14D92D020D614FF480730FE02146D9
:103ED400FFF7CCFF75E000EB4413D3F80C5525F045
:103EE4006005C3F80C5500234B71E0E70123CD783E
:103EF4001DB10D8905FB03F50D610D69C5F31205AF
:103F0400374E06EAC3432B438D7A6D0705F0C0454F
:103F140000EB44142B43C4F8103512B1CB68C4F839
:103F2400143500F58066B36813F0010FD4F800353A
:103F340023F00053C4F80035D4F800350CBF4FF01B
:103F4400005500252B43C4F80035D4F80055254B03
:103F54001D601D6825F080451D60CB78C3B1214DDF
:103F64002B6843F400432B601E4B1D6845F000454D
:103F74001D601B68C4F800351ABBCB780BBB0B69FA
:103F8400FBB1CA79032A14D8DFE802F0081E081E20
:103F9400144D2B6823F400432B60E5E70333C26A16
:103FA40092B2C3F38F039A4203D2836943F020038E
:103FB4008361CC684A780B8A002100912146FFF77F
:103FC40047FD002002B070BD0333326992B2C3F3DF
:103FD4008F039A42EDD2836943F080638361E8E7FB
:103FE4000000F81F8808002070B505460446FFF756
:103FF400EAFC10212846FFF705FD2846FFF716FDC9
:1040040000220AE004EB4211D1F8003523F08023AA
:1040140043F08043C1F8003501320F2AF2D9002061
:10402400034600E001300F2813D804EB401606F5D0
:10403400A061D6F8002522F4004242F04042C6F8BE
:1040440000250133B3F57A7FECD80A68002AF8DB3F
:10405400E8E74FF0FF33C5F814346B612846FFF7E7
:10406400ACFC002070BD0020704708B5212202740A
:10407400202242740022428282820722C28200F0FD
:104084002AFE08BD08B5A12202742122427400222E
:10409400428282820722C28200F01DFE08BD38B52A
:1040A4000446D0F87833D9694031FFF7EBFF054671
:1040B40020B9D4F8C833022120469847284638BD91
:1040C40038B50546D0F87833DC69217879B9217B95
:1040D400B1B9617BF1B9D5F87833D86928B101F069
:1040E40059FED5F878330022DA61002038BD00F09B
:1040F40045FF2178284600F057FF00232370E6E7A8
:10410400284600F03BFF217B284600F04DFF0023AA
:104114002373DEE7284600F031FF617B284600F078
:1041240043FF00236373D6E770B584B004460123CC
:104134000222114600F0A1FAFF2800F0A1800646F1
:104144000146204600F08FFAD4F87853502001F04D
:1041540019FEE861D4F87833DD691A2303FB0643BA
:1041640093F84A3313F0800F72D16978204600F037
:104174000AFF0146287094F81C336A786889029013
:104184000320019094F81D030090204600F0E6FE01
:1041940000222978204601F02BFD00231A460A212B
:1041A400204600F06AFAFF286CD01A2303FB004370
:1041B40093F84A3313F0800F52D1AB731A2303FBE5
:1041C4000043B3F84C332B831A2303FB004393F8C7
:1041D400523313F0800F4BD1AB731A2303FB00400F
:1041E400B0F854332B83A97B204600F0CCFE6873CF
:1041F400E97B204600F0C7FE287394F81C33AA7BA1
:10420400697B288B02900226019694F81D03009086
:10421400204600F0A3FE94F81C33EA7B297B688BCC
:104224000290019694F81D030090204600F096FE3B
:10423400002685F84C603246697B204601F0D8FCA4
:104244003246297B204601F0D3FC304604B070BDD1
:104254006B701A2303FB0646B6F84C336B8184E774
:10426400EB731A2303FB0043B3F84C336B83ABE7C4
:10427400EB731A2303FB0040B0F854336B83B2E7AB
:104284000220E3E70220E1E7704730B583B005463A
:10429400D0F87833DC6994F84D30012B03D0022B2D
:1042A40019D003B030BD606A228B90420AD9637B77
:1042B400E16901200090284600F018FE022384F8EA
:1042C4004D30EEE7637BE1690122009282B2284619
:1042D40000F00CFEF2E7617B01F076FC012805D0CA
:1042E4000228DED1012384F84D30DAE7636A228B99
:1042F40093420AD99B1A6362E3691A44E261636ACE
:1043040033B1012384F84D30CBE700236362F6E731
:10431400002384F84D302846FFF7B6FFC1E7704705
:1043240038B50546D0F87833DC6994F84E30032B61
:1043340002D0042B09D038BD237B628B216A00F0A4
:10434400EBFD042384F84E30F5E7217B01F03CFCBF
:104354000128F0D1217B284601F030FCA36A834276
:1043640002D0628B824206D3002384F84E30284662
:10437400FFF7D5FFDFE71B1AA362236A1844206204
:10438400032384F84E30D6E7704738B50546D0F895
:104394007833DC6994F84C30042B04D8DFE803F05C
:1043A4004C05163C4300012347E0A16CFFF75DFE7A
:1043B400034630B1012840D0042384F84C30012353
:1043C4003BE0022384F84C30012336E004F1400141
:1043D400FFF758FE0346C0B9002384F84C30636CE1
:1043E40023F07F42A16C4B6823F07F439A4201D0B3
:1043F400012322E0226C0B689A4201D001231CE0C5
:104404002846FFF7C1FF012317E0012815D0042334
:1044140084F84C30012310E0FFF737FF2846FFF7FC
:104424007FFF012309E0002100F017FD38B90023C4
:1044340084F84C30012300E00023184638BD0123E2
:10444400FBE7002305E003F1E002002140F822101D
:1044540001330E2BF7D9002304E0C218002182F89F
:104464001C110133B3F5007FF7D3002303704370AD
:1044740001228270C0F8BC330276402181714376F8
:1044840080F81C3380F81D231846704708B503785C
:10449400DBB20B2B00D008BDD0F87833002BFAD058
:1044A4009B699847F7E770B584B004464378072BB7
:1044B40000F2A480DFE803F0042C355E677081927B
:1044C400082100F04DFC18B10125284604B070BD48
:1044D40094F82923A2710125657094F81C3321797D
:1044E40002920026019694F81D2300928022204611
:1044F40000F034FD94F81C336179A279029201969C
:1045040094F81D2300923246204600F027FDDCE794
:10451400122100F025FC002872D1022363700125CA
:10452400D3E7012100F066FC08B10125CDE70220A4
:1045340001F077FB012584F81C5303236370217970
:10454400A37902930026019694F81D3300932B4619
:104554008022204600F002FD94F81C336179A27990
:104564000292019694F81D2300923246204600F0F0
:10457400F5FCAAE7092100F00CFC002842D1042331
:1045840063700125A1E7B0F8361300F002FCD8BB34
:1045940005236370012598E790F8301319B90623B1
:1045A4004370012591E7FF2300F58E7200F00AFCA9
:1045B40060BB06236370012587E790F8311319B9AE
:1045C40007234370012580E7FF2300F58E7200F076
:1045D400F9FBE8B907236370012576E790F83213F5
:1045E40009B9002571E7FF2300F58E7200F0EAFB9C
:1045F400054600283FF469AF012566E7012564E715
:10460400012562E7012560E701255EE701255CE7F6
:1046140001255AE798B138B504460D4680F8C02301
:104624000023C0F87833C0F87C33FFF70AFF0DB1DC
:10463400C4F8C853204601F089FA002038BD02208E
:1046440070470A4659B1D0F87C3353B9591CC0F8A5
:104654007C13DC3300EB83004260002070470220AF
:1046640070470220704790F838338B4203D980F8A2
:104674002013002070470220704770B406460020C3
:104684000AE01A2404FB056595F845439C421AD0B8
:10469400FF2B18D0441CE0B2012813D805461A2475
:1046A40004FB006494F843438C4201D0FF29F1D108
:1046B4001A2404FB056494F844439442E1D0FF2A8D
:1046C400E8D1DEE7FF2070BC704710B5044601F066
:1046D400B5FA0121204601F07DFA002010BDC0F892
:1046E400BC13704708B5D0F8BC330133C0F8BC33F1
:1046F400FFF7CCFE08BD012380F81F337047002369
:1047040080F81F33704790F81F03704730B587B0A7
:10471400044602238DF81730FFF7F5FF38B92378E4
:104724002BB12378DBB2032B01D00323237023782E
:10473400DBB20B2B4AD8DFE803F006131AD0494C3E
:10474400B55E687283C794F81E33002B3ED00123F4
:104754002370C82001F065FA204601F07FFA35E0A5
:1047640094F81F33012B31D1022323702EE06420EF
:1047740001F057FA204601F013FA84F81D030523CB
:1047840023700021204600F0FEFB6071802120464A
:1047940000F0F9FB0146207194F81C33A2790292CF
:1047A4000025019594F81D2300928022204600F0F4
:1047B400D5FB94F81C336179A2790292019594F89F
:1047C4001D2300922A46204600F0C8FB002007B0B3
:1047D40030BD2046FFF767FE0028F7D1002384F898
:1047E400203394F83333012B02D007232370EDE7F1
:1047F40008232370EAE7D4F8C833002BE6D001215C
:104804002046984708232370E0E794F8391320469C
:1048140000F001FB0028D9D109232370D6E794F8CE
:104824003B3313F0200F02D10A232370CEE701217A
:10483400204600F001FB0028C8D10A232370C5E7F5
:10484400D4F87C33002BC1D00023C4F8783373B17F
:10485400D4F878331BB39B6820469847E0B9062305
:104864002370D4F8C833032120469847AEE703F1F8
:10487400DC0204EB82025268117994F843239142DA
:1048840002D00133DBB2E2E703F1DC0204EB820283
:104894005268C4F87823F4E70D23237096E70D23B8
:1048A400237093E7D4F878335BB11B6920469847AB
:1048B4008DF817009DF81730002B87D10B23237038
:1048C40084E70D23237081E7D4F87833002B3FF479
:1048D4007DAF5B692046984778E72046FFF7B1FD36
:1048E400D4F87833002B3FF471AFDB682046984747
:1048F4000023C4F8783369E708B503784BB901237A
:1049040080F81E33D0F8C8330BB104219847002037
:1049140008BD90F81F33012BF9D102230370F6E789
:1049240010B5044601F092F92179204600F03CFBD1
:104934006179204600F038FB002384F81E33D4F854
:10494400C83313B1052120469847204601F076F973
:1049540003232370002010BD10B40B7803704B7830
:1049640043708B78CC7843EA042343800B7903713A
:104974004B7943718B798371CB79C371082A16D92A
:104984000B7A4A7A43EA022303818B7ACA7A43EA8E
:10499400022343810B7B4A7B43EA022383818B7B83
:1049A4008373CB7BC3730B7C03744B7C43745DF8C0
:1049B400044B70470B7803704B7843708B7883708B
:1049C400CB78C3700B7903714B7943718B79837105
:1049D400CB79C3710B7A037270470B7803704B78F1
:1049E40043708B788370CB78C3700B794A7943EA30
:1049F400022383808B79837170474378032B00D023
:104A040070470378023B9A4228BF1A4692B20023A9
:104A140093420DD210B4C418A47801F8014B0233A8
:104A24009BB29342F7D300230B705DF8044B70479D
:104A340000230B70704730B583B00446037E013BFE
:104A44000A2B00F2DA80DFE803F0061037435664DD
:104A5400808C9FADC400427900F1100100F00FFA80
:104A640002232376012003B030BD417901F0ACF874
:104A7400012805D004281BD0022819D00120F2E710
:104A8400237CE28A4AB113F0800F03D105232376F5
:104A94000120E8E703232376E5E713F0800F03D131
:104AA400072323760120DEE7092323760120DAE7B2
:104AB4000B2323760120D6E7D0F8BC33C3810379D6
:104AC4008289816800F002FA042323760120CAE770
:104AD400017901F079F8012806D0052800F08F80CB
:104AE400042804D00120BEE709232376F5E70B232D
:104AF40023760120B7E743798289012500958168EF
:104B040000F0CEF9D4F8BC33E3810623237628469B
:104B1400A9E7417901F058F8012807D0052808D001
:104B240002280AD004280CD001209CE7072323760E
:104B340099E70C232376032095E7052323760120A8
:104B440091E70B23237602208DE703790022114697
:104B540000F0BCF9D4F8BC33E381082323760120A8
:104B640081E7017901F030F8012805D0042807D045
:104B7400052846D0012076E70D232376002072E72E
:104B84000B23237601206EE743790125009500224B
:104B9400114600F085F9D4F8BC33E3810A23237667
:104BA400284660E7417901F00FF8012805D0022872
:104BB40007D0042809D0012055E70D2323760020CF
:104BC40051E70923237601204DE70B2323760120A7
:104BD40049E7437E0133DBB24376022B07D9D0F891
:104BE400C833062198470023637602203BE701F08F
:104BF4002DF801202076A07035E7012033E703204B
:104C040031E703202FE703780A8813440B800378E5
:104C1400184470472DE9F04182B00C460B780370BC
:104C24004B7843708B78C97843EA01234380237916
:104C3400037163794371A3798371E379C371237A2F
:104C44000372092A44D905460923ADF80630002623
:104C5400012E3DD86A88BDF806309A4238D90DF144
:104C640006012046FFF7CFFF04464378042BEFD11B
:104C7400B0461A2000FB06F00830284421460230D2
:104C8400FFF798FE00271A2303FB08539B7BBB42C4
:104C94001BD96A88BDF806309A4216D90DF106016F
:104CA4002046FFF7B0FF04464378052BEBD10137CC
:104CB4001A2000FB08F000EBC70008302844214606
:104CC4000430FFF78AFEFFB2DDE70136F6B2BFE734
:104CD40002B0BDE8F0818378012B03D0022B09D008
:104CE400012305E081608281012303760222827020
:104CF4001846704710B50446FFF79DFE034630B1D1
:104D040003280AD0022806D10122A27003E001225E
:104D1400A27000222276184610BD0122A270002241
:104D24002276F8E738B5BDF810508478012C04D009
:104D34002A461946FFF7CFFF38BD61F07F0404749B
:104D440006214174428202F47F44B4F5407F03D0CB
:104D540000228282C582EBE740F209428282F9E7AF
:104D6400F0B583B0044600F58E750E4600912B46CF
:104D74004FF480720021FFF7D5FF074610B1384683
:104D840003B0F0BD3246294604F22230FFF7E4FDB9
:104D9400F5E7F0B583B004460E4600F11C0500911A
:104DA4002B464FF400720021FFF7BCFF074610B1F9
:104DB400384603B0F0BD3246294604F54D70FFF77E
:104DC40029FFF5E7F0B583B017461D4600F58E744C
:104DD4000093234641F440720021FFF7A3FF0646E7
:104DE40010B1304603B0F0BD2A4639462046FFF7DD
:104DF40004FEF6E708B58378012B04D0002211469F
:104E0400FFF769FF08BD0023037405224274418241
:104E14008382C382F2E708B58378012B04D0002291
:104E24001146FFF758FF08BD00230374092242749A
:104E340041828382C382F2E708B58378012B04D0D0
:104E440000221146FFF747FF08BD00230374032225
:104E5400427441828382C382F2E708B58378012BCE
:104E640004D000221146FFF736FF08BD0223037465
:104E740001234374002343828182C382F1E730B566
:104E840085B01546002403940823029301910094ED
:104E940023462246294600F004FF204605B030BDD3
:104EA40030B585B00C4619469DF8203090F81D5356
:104EB40005B100230393029201940123009300237C
:104EC4001A4600F0EEFE002005B030BD30B585B0C6
:104ED4001D4600240394029201910122009223466C
:104EE400294600F0DEFE204605B030BD30B585B061
:104EF4000C4619469DF8203090F81D5305B1002347
:104F0400039302920194012300930223002200F0F0
:104F1400C8FE002005B030BD30B585B01D46002464
:104F2400039402920191012200920223294600F087
:104F3400B8FE204605B030BD00230A2B0BD803F180
:104F4400E00250F8222012F4004F02D00133DBB209
:104F5400F3E798B270474FF6FF70704710B584B00E
:104F6400BDF8204002949DF81C4001949DF818401F
:104F7400009400F07BFE002004B010BD08B500F0E2
:104F840088FE002008BD38B505460C46FFF7D4FF5F
:104F94004FF6FF73984205D044F4004400F1E00357
:104FA40045F82340C0B238BD0A2906D8E03150F88C
:104FB4002130C3F30E0340F8213000207047000075
:104FC4002DE9F04F8FB0002409940A940B940C94AB
:104FD4000D940194804B1A6B42F010021A631A6B01
:104FE40002F010020192019A02941A6B42F0040238
:104FF4001A631A6B02F004020292029A03941A6B67
:1050040042F020021A631A6B02F020020392039A00
:1050140004941A6B42F080021A631A6B02F0800245
:105024000492049A05941A6B42F001021A631A6BF3
:1050340002F001020592059A06941A6B42F00202EC
:105044001A631A6B02F002020692069A07941A6B0C
:1050540042F040021A631A6B02F040020792079A68
:1050640008941A6B42F008021A631B6B03F00803DE
:105074000893089BDFF8788122460F214046FBF70E
:10508400EDFBDFF8709122464FF4C1514846FBF71F
:10509400E5FB22464FF400615048FBF7DFFB504F1D
:1050A40001224FF480713846FBF7D8FB0F23099394
:1050B4004FF0110ACDF828A00B940C9409A940468E
:1050C400FBF7EEFA1023099302250A950B940C942E
:1050D40008260D9609A94046FBF7E2FA4FF4C1539E
:1050E40009934FF00108CDF828800B940C9409A97A
:1050F4004846FBF7D5FA042309930A950B940C94BC
:105104000D9609A93748FBF7CBFACDF82480DFF8D0
:10511400E8B0CDF828B00B9409A93348FBF7C0FADE
:1051240009950A950B940C940D9609A92F48FBF741
:10513400B7FA4FF4404309930A940B9409A94846DB
:10514400FBF7AEFA932309930A940B9409A9384602
:10515400FBF7A6FA4FF40069CDF824900A950B9456
:105164000C9405230D9309A92048FBF799FACDF86F
:105174002490CDF828800B940C9409A91748FBF7C8
:105184008FFA24230993CDF828B00B940DEB030177
:105194003846FBF785FA4FF48078CDF82480CDF8B3
:1051A40028A00B940C9409A93846FBF779FACDF89A
:1051B40024800A950B940C940D9409A90A48FBF7D2
:1051C4006FFA09960A940B9409A90448FBF768FA44
:1051D4000FB0BDE8F08F00BF00380240000C024061
:1051E400001802400008024000000240000402408F
:1051F40000100240001402400000111010B588B0E5
:105204000022079213484FF02043036003F5827392
:1052140043608260C2600261102141618261C261A7
:1052240042624FF480538362C262026342638263C8
:10523400C263026442640F2301930293FF24039424
:10524400049305911123069301A9FDF763FE08B0A9
:1052540010BD00BF7809002008B50948094B036058
:10526400094B436000238360C3604FF480420261B2
:1052740043618361C3610362FCF7B2F808BD00BFF8
:10528400D008002000540040A086010008B5094859
:10529400094B0360094B436000238360C3604FF4F0
:1052A4008042026143618361C3610362FCF798F841
:1052B40008BD00BF2409002000580040A08601005A
:1052C40008B50A480A4B03604FF400724260002399
:1052D4008360C36002614FF4FA4242618361C36137
:1052E40001230362FCF756F908BD00BFE40A00205D
:1052F400003C004008B50848084B0360FF234360A6
:10530400012282600023C360026143618361C3613F
:105314000362FCF773FC08BD2C0B0020001000A0F6
:1053240010B5094C094B236000236360A360E3605C
:1053340023616361A3612046FDF73AFD4FF40061E8
:105344002046FDF755FD10BDC8090020002C014082
:1053540008B50848084B03604FF4E1334360002369
:105364008360C36003610C2242618361C361FDF702
:1053740007FF08BDA40A00200044004008B50B48FC
:105384000B4B03604FF48273436000238360C3605C
:10539400036143614FF400728261C361036243623B
:1053A40083620A23C362FDF775FD08BD4C0A002021
:1053B4000030014070B5A4B03422002117A800F0D9
:1053C40095FF0024129413941494159416943C227B
:1053D400214603A800F08AFF0194274B1A6C42F07F
:1053E40080521A641B6C03F080530193019B029456
:1053F400224B1A6842F440421A601B6803F440438B
:105404000293029B032317934FF4A02218920122C4
:105414001A9210221B9202251D954FF480021E92AF
:1054240004261F964822209221952293239517A89B
:10543400FDF720F80F231293139514944FF480531F
:1054440015931694294612A8FCF7ECFC61230393E8
:10545400322305930496079506950D940B941094A6
:10546400089403A8FCF7B4FD224621462046FCF725
:105474001FFC24B070BD00BF003802400070004023
:1054840008B5FBF763F8FFF795FFFFF799FDFFF702
:10549400B5FEFFF7E1FEFFF7F9FEFFF711FFFFF797
:1054A40029FFFFF73DFFFFF753FF00F0C5FAFFF7B1
:1054B40065FF00F0E1FAFCE770470000F0B587B043
:1054C400002301930293039304930593194B1B68E0
:1054D4000BB107B0F0BD0121164B196000260096F0
:1054E400154B9A6B0A439A639B6B0B400093009B8A
:1054F400019102270297032504950C24059401A920
:105504000E48FBF7CDF84FF680730193029703968C
:105514000495059401A90A48FBF7C2F84CF2B37349
:105524000193029703960495059401A90548FBF796
:10553400B7F8CEE78C08002000380240001402407F
:1055440000100240000C024082B0002100910B4B7D
:105554005A6C42F480425A645A6C02F480420092BB
:10556400009A01911A6C42F080521A641B6C03F089
:1055740080530193019B02B0704700BF0038024082
:105584002DE9F0438BB0002305930693079308930A
:1055940009930368334A934205D0334A934227D090
:1055A4000BB0BDE8F08300250195304C236B43F02C
:1055B40002032363236B03F002030193019BC023C3
:1055C40005931223069301230793032308930423CB
:1055D400099305A92648FBF763F80295236C43F465
:1055E40000132364236C03F400130293029BD7E794
:1055F400002503951D4C236B43F002032363236BA7
:1056040003F002030393039B4FF4806305934FF06D
:105614001209CDF818904FF00108CDF81C8003272B
:10562400089704230993124E05A93046FBF738F86E
:105634004FF400730593CDF81890CDF81C800897AB
:105644000923099305A93046FBF72AF80495236C2E
:1056540043F480032364236C03F480030493049BC6
:105664009EE700BF0054004000580040003802404C
:1056740000040240F0B58BB0002305930693079312
:105684000893099302682E4B9A4201D00BB0F0BDE7
:105694000024019403F5FE331A6C42F400421A64A8
:1056A4001A6C02F400420192019A02941A6B42F0BD
:1056B40001021A631A6B02F001020292029A039425
:1056C4001A6B42F002021A631A6B02F0020203928E
:1056D400039A04941A6B42F004021A631B6B03F0DE
:1056E40004030493049B10230593022506950626C0
:1056F400099605A91348FAF7D3FF41F2100305935D
:10570400069507940894072309930F4F05A9384673
:10571400FAF7C6FF80230593069507940894099623
:1057240005A90A48FAF7BCFF2023059306950794B8
:105734000894099605A93846FAF7B2FFA6E700BF10
:10574400003C004000000240000402400008024007
:105754002DE9F0438BB00023059306930793089338
:1057640009930268304B9A4202D00BB0BDE8F08333
:10577400002401942D4B9A6B42F002029A639A6BB7
:1057840002F002020192019A02941A6B42F0200282
:105794001A631A6B02F020020292029A03941A6BA3
:1057A40042F002021A631A6B02F002020392039A95
:1057B40004941A6B42F040021A631B6B03F040031B
:1057C4000493049BC023059302260696032508959B
:1057D4004FF00908CDF82480DFF85C9005A948460D
:1057E400FAF75EFF4FF44073059306960794089505
:1057F4000A27099705A94846FAF752FF0423059397
:10580400069607940895CDF8248005A90848FAF768
:1058140047FF40230593069607940895099705A921
:105824000448FAF73DFFA0E7001000A0003802404A
:10583400000402400018024000140240F0B589B090
:105844000023039304930593069307930268204B64
:105854009A4201D009B0F0BD0024009403F58633C8
:105864005A6C42F400625A645A6C02F40062009268
:10587400009A01941A6B42F004021A631A6B02F044
:1058840004020192019A02941A6B42F008021A630C
:105894001B6B03F008030293029B4FF4F85303932A
:1058A40002270497032606960C2507950DEB0501A0
:1058B4000848FAF7F5FE0423039304970594069623
:1058C40007950DEB05010448FAF7EAFEC2E700BFAD
:1058D400002C014000080240000C024000B589B0D1
:1058E4000023039304930593069307930268154BCF
:1058F4009A4202D009B05DF804FB0021019103F53E
:1059040084335A6C42F480525A645A6C02F48052C2
:105914000192019A02911A6B42F001021A631B6B05
:1059240003F001030293029BE023039302230493F5
:10593400032306930523079303A90348FAF7B0FE4C
:10594400D8E700BF003001400000024000B589B034
:105954000023039304930593069307930268164B5D
:105964009A4202D009B05DF804FB0021019103F5CD
:10597400FA331A6C42F400321A641A6C02F40032DC
:105984000192019A02911A6B42F001021A631B6B95
:1059940003F001030293029B0C2303930223049359
:1059A40001230593032306930723079303A90348BD
:1059B400FAF776FED6E700BF00440040000002403C
:1059C40008B5FFF77BFD08BD7047FEE7FEE7FEE77D
:1059D400FEE770477047704708B5FAF7D1FD08BD78
:1059E40008B50248FBF713FC08BD00BF440F0020B4
:1059F400054BD3F8882042F47002C3F888204FF096
:105A040000629A60704700BF00ED00E004290CD0EA
:105A1400052902D0022904D07047064B03221A70CC
:105A24007047044B02221A707047024B01221A700D
:105A3400F2E700BF9008002008B501220B490C488A
:105A4400FEF7E8FD48B90B490948FEF7FAFD38B9F5
:105A54000748FEF73AFE30B908BDFFF72DFDF2E71F
:105A6400FFF72AFDF4E7FFF727FDF5E7115A0008D1
:105A7400780B00200800002008B50248FEF746FE17
:105A840008BD00BF780B002030B589B00023039314
:105A940004930593069307930368B3F1A04F01D0D1
:105AA40009B030BD00250195164C236B43F001036A
:105AB4002363236B03F001030193019B4FF4E05331
:105AC400039302230493032306930A23079303A94E
